{
  "_format": "hh-sol-artifact-1",
  "contractName": "Stv",
  "sourceName": "contracts/Stv.sol",
  "abi": [
    {
      "inputs": [
        {
          "internalType": "string",
          "name": "_electionName",
          "type": "string"
        },
        {
          "internalType": "uint256",
          "name": "_electionDate",
          "type": "uint256"
        },
        {
          "internalType": "uint256",
          "name": "_electionDuration",
          "type": "uint256"
        },
        {
          "internalType": "uint256",
          "name": "_totalNoOfAvailableSlots",
          "type": "uint256"
        }
      ],
      "stateMutability": "nonpayable",
      "type": "constructor"
    },
    {
      "anonymous": false,
      "inputs": [
        {
          "indexed": false,
          "internalType": "string",
          "name": "success",
          "type": "string"
        },
        {
          "indexed": false,
          "internalType": "uint256[]",
          "name": "preference",
          "type": "uint256[]"
        }
      ],
      "name": "UserSuccessfullyVoted",
      "type": "event"
    },
    {
      "inputs": [],
      "name": "ElectionDate",
      "outputs": [
        {
          "internalType": "uint256",
          "name": "",
          "type": "uint256"
        }
      ],
      "stateMutability": "view",
      "type": "function"
    },
    {
      "inputs": [],
      "name": "ElectionDuration",
      "outputs": [
        {
          "internalType": "uint256",
          "name": "",
          "type": "uint256"
        }
      ],
      "stateMutability": "view",
      "type": "function"
    },
    {
      "inputs": [],
      "name": "ElectionName",
      "outputs": [
        {
          "internalType": "string",
          "name": "",
          "type": "string"
        }
      ],
      "stateMutability": "view",
      "type": "function"
    },
    {
      "inputs": [
        {
          "internalType": "uint256",
          "name": "",
          "type": "uint256"
        }
      ],
      "name": "ElectionWinners",
      "outputs": [
        {
          "internalType": "bytes32",
          "name": "",
          "type": "bytes32"
        }
      ],
      "stateMutability": "view",
      "type": "function"
    },
    {
      "inputs": [
        {
          "internalType": "uint256",
          "name": "",
          "type": "uint256"
        }
      ],
      "name": "PreferedProposalCount",
      "outputs": [
        {
          "internalType": "uint256",
          "name": "votedWeight",
          "type": "uint256"
        }
      ],
      "stateMutability": "view",
      "type": "function"
    },
    {
      "inputs": [
        {
          "internalType": "uint256",
          "name": "",
          "type": "uint256"
        }
      ],
      "name": "PreferedProposalNo",
      "outputs": [
        {
          "internalType": "uint256",
          "name": "",
          "type": "uint256"
        }
      ],
      "stateMutability": "view",
      "type": "function"
    },
    {
      "inputs": [],
      "name": "TotalNoOfAvailableSlots",
      "outputs": [
        {
          "internalType": "uint256",
          "name": "",
          "type": "uint256"
        }
      ],
      "stateMutability": "view",
      "type": "function"
    },
    {
      "inputs": [],
      "name": "TotalVotesID",
      "outputs": [
        {
          "internalType": "uint256",
          "name": "",
          "type": "uint256"
        }
      ],
      "stateMutability": "view",
      "type": "function"
    },
    {
      "inputs": [
        {
          "internalType": "string",
          "name": "quotaName",
          "type": "string"
        },
        {
          "internalType": "uint256",
          "name": "votesCast",
          "type": "uint256"
        },
        {
          "internalType": "uint256",
          "name": "numberOfSlots",
          "type": "uint256"
        }
      ],
      "name": "getElectionQuota",
      "outputs": [
        {
          "internalType": "uint256",
          "name": "",
          "type": "uint256"
        }
      ],
      "stateMutability": "pure",
      "type": "function"
    },
    {
      "inputs": [],
      "name": "isElectionProposalsPassed",
      "outputs": [
        {
          "internalType": "bool",
          "name": "",
          "type": "bool"
        }
      ],
      "stateMutability": "view",
      "type": "function"
    },
    {
      "inputs": [
        {
          "internalType": "uint256",
          "name": "",
          "type": "uint256"
        }
      ],
      "name": "isPreferedProposal",
      "outputs": [
        {
          "internalType": "bool",
          "name": "",
          "type": "bool"
        }
      ],
      "stateMutability": "view",
      "type": "function"
    },
    {
      "inputs": [
        {
          "internalType": "bytes32[]",
          "name": "_electionProposals",
          "type": "bytes32[]"
        }
      ],
      "name": "passElectionProposals",
      "outputs": [],
      "stateMutability": "nonpayable",
      "type": "function"
    },
    {
      "inputs": [],
      "name": "viewElectionProposals",
      "outputs": [
        {
          "internalType": "bytes32[]",
          "name": "",
          "type": "bytes32[]"
        }
      ],
      "stateMutability": "view",
      "type": "function"
    },
    {
      "inputs": [],
      "name": "viewIsElectionProposalsPassed",
      "outputs": [
        {
          "internalType": "bool",
          "name": "",
          "type": "bool"
        }
      ],
      "stateMutability": "view",
      "type": "function"
    },
    {
      "inputs": [],
      "name": "viewNoElectionProposals",
      "outputs": [
        {
          "internalType": "uint256",
          "name": "",
          "type": "uint256"
        }
      ],
      "stateMutability": "view",
      "type": "function"
    },
    {
      "inputs": [
        {
          "internalType": "uint256",
          "name": "preferedProposal",
          "type": "uint256"
        },
        {
          "internalType": "uint256[]",
          "name": "preferenceRank",
          "type": "uint256[]"
        }
      ],
      "name": "vote",
      "outputs": [],
      "stateMutability": "nonpayable",
      "type": "function"
    },
    {
      "inputs": [
        {
          "internalType": "string",
          "name": "quotaName",
          "type": "string"
        }
      ],
      "name": "voteCount",
      "outputs": [
        {
          "internalType": "bytes32[]",
          "name": "",
          "type": "bytes32[]"
        }
      ],
      "stateMutability": "nonpayable",
      "type": "function"
    }
  ],
  "bytecode": "0x60e06040523480156200001157600080fd5b506040516200160c3803806200160c833981810160405260808110156200003757600080fd5b81019080805160405193929190846401000000008211156200005857600080fd5b838201915060208201858111156200006f57600080fd5b82518660018202830111640100000000821117156200008d57600080fd5b8083526020830192505050908051906020019080838360005b83811015620000c3578082015181840152602081019050620000a6565b50505050905090810190601f168015620000f15780820380516001836020036101000a031916815260200191505b5060405260200180519060200190929190805190602001909291908051906020019092919050505083600090805190602001906200013192919062000154565b5082608081815250508160a081815250508060c0818152505050505050620001fa565b828054600181600116156101000203166002900490600052602060002090601f016020900481019282601f106200019757805160ff1916838001178555620001c8565b82800160010185558215620001c8579182015b82811115620001c7578251825591602001919060010190620001aa565b5b509050620001d79190620001db565b5090565b5b80821115620001f6576000816000905550600101620001dc565b5090565b60805160a05160c0516113e06200022c6000398061097e52806110ee5250806111c652508061120152506113e06000f3fe608060405234801561001057600080fd5b506004361061010b5760003560e01c80637055d368116100a2578063d112b1ca11610071578063d112b1ca1461061e578063de2877a11461063c578063e304ce871461065c578063e4b90ccc1461067a578063fbbd812e146106be5761010b565b80637055d368146103a95780637506cf4f1461042c57806380843e251461048b578063ba7f75521461050e5761010b565b806341cc6870116100de57806341cc6870146101d05780635dbf6b5d146101f05780636792f2b5146102d3578063698863dd146102f15761010b565b80630a0edd541461011057806317acba31146101525780631cc05acc1461017057806330f0fdf71461018e575b600080fd5b61013c6004803603602081101561012657600080fd5b8101908080359060200190929190505050610700565b6040518082815260200191505060405180910390f35b61015a610721565b6040518082815260200191505060405180910390f35b610178610727565b6040518082815260200191505060405180910390f35b6101ba600480360360208110156101a457600080fd5b8101908080359060200190929190505050610799565b6040518082815260200191505060405180910390f35b6101d86107ba565b60405180821515815260200191505060405180910390f35b6102bd6004803603606081101561020657600080fd5b810190808035906020019064010000000081111561022357600080fd5b82018360208201111561023557600080fd5b8035906020019184600183028401116401000000008311171561025757600080fd5b91908080601f016020809104026020016040519081016040528093929190818152602001838380828437600081840152601f19601f82011690508083019250505050505050919291929080359060200190929190803590602001909291905050506107cd565b6040518082815260200191505060405180910390f35b6102db61097c565b6040518082815260200191505060405180910390f35b6103a76004803603602081101561030757600080fd5b810190808035906020019064010000000081111561032457600080fd5b82018360208201111561033657600080fd5b8035906020019184602083028401116401000000008311171561035857600080fd5b919080806020026020016040519081016040528093929190818152602001838360200280828437600081840152601f19601f8201169050808301925050505050505091929192905050506109a0565b005b61042a600480360360408110156103bf57600080fd5b8101908080359060200190929190803590602001906401000000008111156103e657600080fd5b8201836020820111156103f857600080fd5b8035906020019184602083028401116401000000008311171561041a57600080fd5b9091929391929390505050610a3b565b005b610434610f70565b6040518080602001828103825283818151815260200191508051906020019060200280838360005b8381101561047757808201518184015260208101905061045c565b505050509050019250505060405180910390f35b61049361102d565b6040518080602001828103825283818151815260200191508051906020019080838360005b838110156104d35780820151818401526020810190506104b8565b50505050905090810190601f1680156105005780820380516001836020036101000a031916815260200191505b509250505060405180910390f35b6105c76004803603602081101561052457600080fd5b810190808035906020019064010000000081111561054157600080fd5b82018360208201111561055357600080fd5b8035906020019184600183028401116401000000008311171561057557600080fd5b91908080601f016020809104026020016040519081016040528093929190818152602001838380828437600081840152601f19601f8201169050808301925050505050505091929192905050506110cb565b6040518080602001828103825283818151815260200191508051906020019060200280838360005b8381101561060a5780820151818401526020810190506105ef565b505050509050019250505060405180910390f35b6106266111c4565b6040518082815260200191505060405180910390f35b6106446111e8565b60405180821515815260200191505060405180910390f35b6106646111ff565b6040518082815260200191505060405180910390f35b6106a66004803603602081101561069057600080fd5b8101908080359060200190929190505050611223565b60405180821515815260200191505060405180910390f35b6106ea600480360360208110156106d457600080fd5b8101908080359060200190929190505050611243565b6040518082815260200191505060405180910390f35b6006818154811061070d57fe5b906000526020600020016000915090505481565b6103e881565b6000600360009054906101000a900460ff1661078e576040517f08c379a00000000000000000000000000000000000000000000000000000000081526004018080602001828103825260258152602001806113656025913960400191505060405180910390fd5b600180549050905090565b600281815481106107a657fe5b906000526020600020016000915090505481565b600360009054906101000a900460ff1681565b600060405160200180807f44524f4f50000000000000000000000000000000000000000000000000000000815250600501905060405160208183030381529060405280519060200120846040516020018082805190602001908083835b6020831061084d578051825260208201915060208101905060208303925061082a565b6001836020036101000a0380198251168184511680821785525050505050509050019150506040516020818303038152906040528051906020012014156108a4576001808301848161089b57fe5b04019050610975565b60405160200180807f4841524500000000000000000000000000000000000000000000000000000000815250600401905060405160208183030381529060405280519060200120846040516020018082805190602001908083835b6020831061092257805182526020820191506020810190506020830392506108ff565b6001836020036101000a0380198251168184511680821785525050505050509050019150506040516020818303038152906040528051906020012014156109745781838161096c57fe5b049050610975565b5b9392505050565b7f000000000000000000000000000000000000000000000000000000000000000081565b600360009054906101000a900460ff1615610a06576040517f08c379a000000000000000000000000000000000000000000000000000000000815260040180806020018281038252602181526020018061138a6021913960400191505060405180910390fd5b8060019080519060200190610a1c929190611261565b506001600360006101000a81548160ff02191690831515021790555050565b81816001805490508282905014610a9d576040517f08c379a00000000000000000000000000000000000000000000000000000000081526004018080602001828103825260308152602001806112cc6030913960400191505060405180910390fd5b600082826000818110610aac57fe5b90506020020135905060005b838390508160ff161015610c4e5760018054905084848360ff16818110610adb57fe5b905060200201351115610b39576040517f08c379a00000000000000000000000000000000000000000000000000000000081526004018080602001828103825260408152602001806113256040913960400191505060405180910390fd5b600084848360ff16818110610b4a57fe5b9050602002013511610ba7576040517f08c379a00000000000000000000000000000000000000000000000000000000081526004018080602001828103825260298152602001806112fc6029913960400191505060405180910390fd5b60008160ff16118015610bce57508184848360ff16818110610bc557fe5b90506020020135145b15610c41576040517f08c379a000000000000000000000000000000000000000000000000000000000815260040180806020018281038252601d8152602001807f566f7465642072616e6b2063616e6e6f7420626520726570656174656400000081525060200191505060405180910390fd5b8080600101915050610ab8565b506000600190506005600088815260200190815260200160002060009054906101000a900460ff16610cd057600687908060018154018082558091505060019003906000526020600020016000909190919091505560016005600089815260200190815260200160002060006101000a81548160ff0219169083151502179055505b80600460008981526020019081526020016000206000016000828254019250508190555060005b86869050811015610ea15780881415610d0f57610e94565b600460008981526020019081526020016000206001016000888884818110610d3357fe5b905060200201358152602001908152602001600020600101600082815260200190815260200160002060009054906101000a900460ff16610e3857600460008981526020019081526020016000206001016000888884818110610d9257fe5b9050602002013581526020019081526020016000206000018190806001815401808255809150506001900390600052602060002001600090919091909150556001600460008a81526020019081526020016000206001016000898985818110610df757fe5b905060200201358152602001908152602001600020600101600083815260200190815260200160002060006101000a81548160ff0219169083151502179055505b81600460008a81526020019081526020016000206001016000898985818110610e5d57fe5b9050602002013581526020019081526020016000206002016000838152602001908152602001600020600082825401925050819055505b8080600101915050610cf7565b5080600460006103e88152602001908152602001600020600001600082825401925050819055507fd1a9279af7d614330cf886dc688dedc8be584f48cd2851adffcf48aeb96b20858686604051808060200180602001838103835260198152602001807f596f75277665207375636365737366756c6c7920766f746564000000000000008152506020018381038252858582818152602001925060200280828437600081840152601f19601f82011690508083019250505094505050505060405180910390a150505050505050565b6060600360009054906101000a900460ff16610fd7576040517f08c379a00000000000000000000000000000000000000000000000000000000081526004018080602001828103825260258152602001806113656025913960400191505060405180910390fd5b600180548060200260200160405190810160405280929190818152602001828054801561102357602002820191906000526020600020905b81548152602001906001019080831161100f575b5050505050905090565b60008054600181600116156101000203166002900480601f0160208091040260200160405190810160405280929190818152602001828054600181600116156101000203166002900480156110c35780601f10611098576101008083540402835291602001916110c3565b820191906000526020600020905b8154815290600101906020018083116110a657829003601f168201915b505050505081565b6060600061111283600460006103e88152602001908152602001600020600001547f00000000000000000000000000000000000000000000000000000000000000006107cd565b905060005b6006805490508110156111bd5781600460006006848154811061113657fe5b9060005260206000200154815260200190815260200160002060000154106111b057600260016006838154811061116957fe5b90600052602060002001548154811061117e57fe5b906000526020600020015490806001815401808255809150506001900390600052602060002001600090919091909150555b8080600101915050611117565b5050919050565b7f000000000000000000000000000000000000000000000000000000000000000081565b6000600360009054906101000a900460ff16905090565b7f000000000000000000000000000000000000000000000000000000000000000081565b60056020528060005260406000206000915054906101000a900460ff1681565b60046020528060005260406000206000915090508060000154905081565b82805482825590600052602060002090810192821561129d579160200282015b8281111561129c578251825591602001919060010190611281565b5b5090506112aa91906112ae565b5090565b5b808211156112c75760008160009055506001016112af565b509056fe566f74652069732062656c6f77206f72206578636565647320746865206e756d626572206f662070726f706f73616c7352616e6b2063616e6e6f74206265206c657373207468616e206f7220657175616c20746f207a65726f52616e6b2063616e6e6f7420626520686967686572207468616e206e756d626572206f6620726570726573656e746174697665206f722070726f706f73616c73456c656374696f6e2050726f706f73616c20686173206e6f74206265656e20706173736564456c656374696f6e2050726f706f73616c20686173206265656e20706173736564a26469706673582212209f46429c0dc864c7d4b5f2712215829ec270f5323426734c57d4b2b138be636264736f6c63430007000033",
  "linkReferences": {},
  "deployedLinkReferences": {}
}