{
  "_format": "hh-sol-artifact-1",
  "contractName": "Stv",
  "sourceName": "contracts/Stv.sol",
  "abi": [
    {
      "inputs": [
        {
          "internalType": "string",
          "name": "_voteName",
          "type": "string"
        },
        {
          "internalType": "uint256",
          "name": "_date",
          "type": "uint256"
        },
        {
          "internalType": "uint256",
          "name": "_duration",
          "type": "uint256"
        },
        {
          "internalType": "bytes32[]",
          "name": "_proposalNames",
          "type": "bytes32[]"
        }
      ],
      "stateMutability": "nonpayable",
      "type": "constructor"
    },
    {
      "anonymous": false,
      "inputs": [
        {
          "indexed": false,
          "internalType": "string",
          "name": "voteName",
          "type": "string"
        },
        {
          "indexed": false,
          "internalType": "uint8",
          "name": "noOfProposals",
          "type": "uint8"
        }
      ],
      "name": "BallotCreated",
      "type": "event"
    },
    {
      "inputs": [
        {
          "internalType": "uint8",
          "name": "",
          "type": "uint8"
        }
      ],
      "name": "Ballot",
      "outputs": [
        {
          "internalType": "bytes32",
          "name": "",
          "type": "bytes32"
        }
      ],
      "stateMutability": "view",
      "type": "function"
    },
    {
      "inputs": [],
      "name": "Date",
      "outputs": [
        {
          "internalType": "uint256",
          "name": "",
          "type": "uint256"
        }
      ],
      "stateMutability": "view",
      "type": "function"
    },
    {
      "inputs": [],
      "name": "Duration",
      "outputs": [
        {
          "internalType": "uint256",
          "name": "",
          "type": "uint256"
        }
      ],
      "stateMutability": "view",
      "type": "function"
    },
    {
      "inputs": [
        {
          "internalType": "uint256",
          "name": "",
          "type": "uint256"
        }
      ],
      "name": "Proposals",
      "outputs": [
        {
          "internalType": "bytes32",
          "name": "name",
          "type": "bytes32"
        }
      ],
      "stateMutability": "view",
      "type": "function"
    },
    {
      "inputs": [],
      "name": "VoteName",
      "outputs": [
        {
          "internalType": "string",
          "name": "",
          "type": "string"
        }
      ],
      "stateMutability": "view",
      "type": "function"
    },
    {
      "inputs": [],
      "name": "createBallot",
      "outputs": [],
      "stateMutability": "nonpayable",
      "type": "function"
    },
    {
      "inputs": [],
      "name": "isBallotCreated",
      "outputs": [
        {
          "internalType": "bool",
          "name": "",
          "type": "bool"
        }
      ],
      "stateMutability": "view",
      "type": "function"
    }
  ],
  "bytecode": "0x60c060405234801561001057600080fd5b506040516108303803806108308339818101604052608081101561003357600080fd5b810190808051604051939291908464010000000082111561005357600080fd5b8382019150602082018581111561006957600080fd5b825186600182028301116401000000008211171561008657600080fd5b8083526020830192505050908051906020019080838360005b838110156100ba57808201518184015260208101905061009f565b50505050905090810190601f1680156100e75780820380516001836020036101000a031916815260200191505b5060405260200180519060200190929190805190602001909291908051604051939291908464010000000082111561011e57600080fd5b8382019150602082018581111561013457600080fd5b825186602082028301116401000000008211171561015157600080fd5b8083526020830192505050908051906020019060200280838360005b8381101561018857808201518184015260208101905061016d565b5050505090500160405250505083600090805190602001906101ab92919061023a565b5082608081815250508160a0818152505060005b81518160ff1610156102305760026040518060200160405280848460ff16815181106101e757fe5b60200260200101518152509080600181540180825580915050600190039060005260206000200160009091909190915060008201518160000155505080806001019150506101bf565b50505050506102d7565b828054600181600116156101000203166002900490600052602060002090601f016020900481019282601f1061027b57805160ff19168380011785556102a9565b828001600101855582156102a9579182015b828111156102a857825182559160200191906001019061028d565b5b5090506102b691906102ba565b5090565b5b808211156102d35760008160009055506001016102bb565b5090565b60805160a0516105366102fa6000398061030552508061021852506105366000f3fe608060405234801561001057600080fd5b506004361061007d5760003560e01c8063940f851c1161005b578063940f851c1461012d578063a771504114610172578063ccb3094114610192578063d1dbe7d8146101b05761007d565b8063087cca26146100825780631ca989cf1461008c5780633c062f22146100aa575b600080fd5b61008a6101f2565b005b610094610216565b6040518082815260200191505060405180910390f35b6100b261023a565b6040518080602001828103825283818151815260200191508051906020019080838360005b838110156100f25780820151818401526020810190506100d7565b50505050905090810190601f16801561011f5780820380516001836020036101000a031916815260200191505b509250505060405180910390f35b61015c6004803603602081101561014357600080fd5b81019080803560ff1690602001909291905050506102d8565b6040518082815260200191505060405180910390f35b61017a6102f0565b60405180821515815260200191505060405180910390f35b61019a610303565b6040518082815260200191505060405180910390f35b6101dc600480360360208110156101c657600080fd5b8101908080359060200190929190505050610327565b6040518082815260200191505060405180910390f35b6101fa61034e565b60018060006101000a81548160ff021916908315150217905550565b7f000000000000000000000000000000000000000000000000000000000000000081565b60008054600181600116156101000203166002900480601f0160208091040260200160405190810160405280929190818152602001828054600181600116156101000203166002900480156102d05780601f106102a5576101008083540402835291602001916102d0565b820191906000526020600020905b8154815290600101906020018083116102b357829003601f168201915b505050505081565b60036020528060005260406000206000915090505481565b600160009054906101000a900460ff1681565b7f000000000000000000000000000000000000000000000000000000000000000081565b6002818154811061033457fe5b906000526020600020016000915090508060000154905081565b600160009054906101000a900460ff16156103d1576040517f08c379a000000000000000000000000000000000000000000000000000000000815260040180806020018281038252601f8152602001807f42616c6c6f742068617320616c7265616479206265656e20637265617465640081525060200191505060405180910390fd5b600080600090505b6002805490508160ff1610156104375760028160ff16815481106103f957fe5b9060005260206000200160000154600360008360ff1660ff1681526020019081526020016000208190555060018201915080806001019150506103d9565b507f4328d2b155cac6420601a613a97d82fc7b499fae0b3d07eda80a3e711963fd5460008260405180806020018360ff1681526020018281038252848181546001816001161561010002031660029004815260200191508054600181600116156101000203166002900480156104ee5780601f106104c3576101008083540402835291602001916104ee565b820191906000526020600020905b8154815290600101906020018083116104d157829003601f168201915b5050935050505060405180910390a15056fea2646970667358221220a193e287d6c5373dba337b3043876c957e84e6991dc58cc6f60e7f09a2fb7f4364736f6c63430007030033",
  "linkReferences": {},
  "deployedLinkReferences": {}
}