{
  "_format": "hh-sol-artifact-1",
  "contractName": "Stv",
  "sourceName": "contracts/Stv.sol",
  "abi": [
    {
      "inputs": [
        {
          "internalType": "string",
          "name": "_voteName",
          "type": "string"
        },
        {
          "internalType": "uint256",
          "name": "_date",
          "type": "uint256"
        },
        {
          "internalType": "uint256",
          "name": "_duration",
          "type": "uint256"
        },
        {
          "internalType": "bytes32[]",
          "name": "_proposalNames",
          "type": "bytes32[]"
        }
      ],
      "stateMutability": "nonpayable",
      "type": "constructor"
    },
    {
      "anonymous": false,
      "inputs": [
        {
          "indexed": false,
          "internalType": "string",
          "name": "voteName",
          "type": "string"
        },
        {
          "indexed": false,
          "internalType": "uint8",
          "name": "noOfProposals",
          "type": "uint8"
        }
      ],
      "name": "BallotCreated",
      "type": "event"
    },
    {
      "inputs": [
        {
          "internalType": "uint8",
          "name": "",
          "type": "uint8"
        }
      ],
      "name": "Ballot",
      "outputs": [
        {
          "internalType": "bytes32",
          "name": "",
          "type": "bytes32"
        }
      ],
      "stateMutability": "view",
      "type": "function"
    },
    {
      "inputs": [],
      "name": "Date",
      "outputs": [
        {
          "internalType": "uint256",
          "name": "",
          "type": "uint256"
        }
      ],
      "stateMutability": "view",
      "type": "function"
    },
    {
      "inputs": [],
      "name": "Duration",
      "outputs": [
        {
          "internalType": "uint256",
          "name": "",
          "type": "uint256"
        }
      ],
      "stateMutability": "view",
      "type": "function"
    },
    {
      "inputs": [
        {
          "internalType": "uint256",
          "name": "",
          "type": "uint256"
        }
      ],
      "name": "Proposals",
      "outputs": [
        {
          "internalType": "bytes32",
          "name": "name",
          "type": "bytes32"
        }
      ],
      "stateMutability": "view",
      "type": "function"
    },
    {
      "inputs": [],
      "name": "VoteName",
      "outputs": [
        {
          "internalType": "string",
          "name": "",
          "type": "string"
        }
      ],
      "stateMutability": "view",
      "type": "function"
    },
    {
      "inputs": [],
      "name": "createBallot",
      "outputs": [],
      "stateMutability": "nonpayable",
      "type": "function"
    },
    {
      "inputs": [],
      "name": "isBallotCreated",
      "outputs": [
        {
          "internalType": "bool",
          "name": "",
          "type": "bool"
        }
      ],
      "stateMutability": "view",
      "type": "function"
    },
    {
      "inputs": [
        {
          "internalType": "uint8[]",
          "name": "preferenceRank",
          "type": "uint8[]"
        }
      ],
      "name": "isVoteValid",
      "outputs": [
        {
          "internalType": "bool",
          "name": "",
          "type": "bool"
        }
      ],
      "stateMutability": "nonpayable",
      "type": "function"
    }
  ],
  "bytecode": "0x60c060405234801561001057600080fd5b506040516109e43803806109e48339818101604052608081101561003357600080fd5b810190808051604051939291908464010000000082111561005357600080fd5b8382019150602082018581111561006957600080fd5b825186600182028301116401000000008211171561008657600080fd5b8083526020830192505050908051906020019080838360005b838110156100ba57808201518184015260208101905061009f565b50505050905090810190601f1680156100e75780820380516001836020036101000a031916815260200191505b5060405260200180519060200190929190805190602001909291908051604051939291908464010000000082111561011e57600080fd5b8382019150602082018581111561013457600080fd5b825186602082028301116401000000008211171561015157600080fd5b8083526020830192505050908051906020019060200280838360005b8381101561018857808201518184015260208101905061016d565b5050505090500160405250505083600090805190602001906101ab92919061023a565b5082608081815250508160a0818152505060005b81518160ff1610156102305760026040518060200160405280848460ff16815181106101e757fe5b60200260200101518152509080600181540180825580915050600190039060005260206000200160009091909190915060008201518160000155505080806001019150506101bf565b50505050506102d7565b828054600181600116156101000203166002900490600052602060002090601f016020900481019282601f1061027b57805160ff19168380011785556102a9565b828001600101855582156102a9579182015b828111156102a857825182559160200191906001019061028d565b5b5090506102b691906102ba565b5090565b5b808211156102d35760008160009055506001016102bb565b5090565b60805160a0516106ea6102fa600039806104955250806103a852506106ea6000f3fe608060405234801561001057600080fd5b50600436106100885760003560e01c8063940f851c1161005b578063940f851c14610206578063a77150411461024b578063ccb309411461026b578063d1dbe7d81461028957610088565b80630319f7e41461008d578063087cca261461015b5780631ca989cf146101655780633c062f2214610183575b600080fd5b610143600480360360208110156100a357600080fd5b81019080803590602001906401000000008111156100c057600080fd5b8201836020820111156100d257600080fd5b803590602001918460208302840111640100000000831117156100f457600080fd5b919080806020026020016040519081016040528093929190818152602001838360200280828437600081840152601f19601f8201169050808301925050505050505091929192905050506102cb565b60405180821515815260200191505060405180910390f35b610163610382565b005b61016d6103a6565b6040518082815260200191505060405180910390f35b61018b6103ca565b6040518080602001828103825283818151815260200191508051906020019080838360005b838110156101cb5780820151818401526020810190506101b0565b50505050905090810190601f1680156101f85780820380516001836020036101000a031916815260200191505b509250505060405180910390f35b6102356004803603602081101561021c57600080fd5b81019080803560ff169060200190929190505050610468565b6040518082815260200191505060405180910390f35b610253610480565b60405180821515815260200191505060405180910390f35b610273610493565b6040518082815260200191505060405180910390f35b6102b56004803603602081101561029f57600080fd5b81019080803590602001909291905050506104b7565b6040518082815260200191505060405180910390f35b600060028054905082511461032b576040517f08c379a00000000000000000000000000000000000000000000000000000000081526004018080602001828103825260248152602001806106916024913960400191505060405180910390fd5b60005b82518160ff16101561037757600280549050838260ff168151811061034f57fe5b602002602001015160ff16111561036a57600091505061037d565b808060010191505061032e565b50600190505b919050565b61038a6104de565b60018060006101000a81548160ff021916908315150217905550565b7f000000000000000000000000000000000000000000000000000000000000000081565b60008054600181600116156101000203166002900480601f0160208091040260200160405190810160405280929190818152602001828054600181600116156101000203166002900480156104605780601f1061043557610100808354040283529160200191610460565b820191906000526020600020905b81548152906001019060200180831161044357829003601f168201915b505050505081565b60036020528060005260406000206000915090505481565b600160009054906101000a900460ff1681565b7f000000000000000000000000000000000000000000000000000000000000000081565b600281815481106104c457fe5b906000526020600020016000915090508060000154905081565b600160009054906101000a900460ff1615610561576040517f08c379a000000000000000000000000000000000000000000000000000000000815260040180806020018281038252601f8152602001807f42616c6c6f742068617320616c7265616479206265656e20637265617465640081525060200191505060405180910390fd5b600080600090505b6002805490508160ff1610156105c75760028160ff168154811061058957fe5b9060005260206000200160000154600360008360ff1660ff168152602001908152602001600020819055506001820191508080600101915050610569565b507f4328d2b155cac6420601a613a97d82fc7b499fae0b3d07eda80a3e711963fd5460008260405180806020018360ff16815260200182810382528481815460018160011615610100020316600290048152602001915080546001816001161561010002031660029004801561067e5780601f106106535761010080835404028352916020019161067e565b820191906000526020600020905b81548152906001019060200180831161066157829003601f168201915b5050935050505060405180910390a15056fe566f7465206578636565647320746865206e756d626572206f662070726f706f73616c73a2646970667358221220cb8c25649b35cfa8a31f7b89c4772ded1a744e3043618ff516469fdbfd70ad3864736f6c63430007030033",
  "linkReferences": {},
  "deployedLinkReferences": {}
}