{
  "_format": "hh-sol-artifact-1",
  "contractName": "Stv",
  "sourceName": "contracts/Stv.sol",
  "abi": [
    {
      "inputs": [
        {
          "internalType": "string",
          "name": "_electionName",
          "type": "string"
        },
        {
          "internalType": "uint256",
          "name": "_electionDate",
          "type": "uint256"
        },
        {
          "internalType": "uint256",
          "name": "_electionDuration",
          "type": "uint256"
        }
      ],
      "stateMutability": "nonpayable",
      "type": "constructor"
    },
    {
      "anonymous": false,
      "inputs": [
        {
          "indexed": false,
          "internalType": "string",
          "name": "voteName",
          "type": "string"
        },
        {
          "indexed": false,
          "internalType": "uint256",
          "name": "noProposalOrRepresentatives",
          "type": "uint256"
        }
      ],
      "name": "BallotCreated",
      "type": "event"
    },
    {
      "anonymous": false,
      "inputs": [
        {
          "indexed": false,
          "internalType": "string",
          "name": "success",
          "type": "string"
        },
        {
          "indexed": false,
          "internalType": "uint256[]",
          "name": "preference",
          "type": "uint256[]"
        }
      ],
      "name": "UserSuccessfullyVoted",
      "type": "event"
    },
    {
      "inputs": [],
      "name": "PerfectCandidateID",
      "outputs": [
        {
          "internalType": "uint16",
          "name": "",
          "type": "uint16"
        }
      ],
      "stateMutability": "view",
      "type": "function"
    },
    {
      "inputs": [],
      "name": "PerfectCandidateNAME",
      "outputs": [
        {
          "internalType": "bytes32",
          "name": "",
          "type": "bytes32"
        }
      ],
      "stateMutability": "view",
      "type": "function"
    },
    {
      "inputs": [
        {
          "internalType": "bytes32",
          "name": "",
          "type": "bytes32"
        },
        {
          "internalType": "uint256",
          "name": "",
          "type": "uint256"
        }
      ],
      "name": "Proposal",
      "outputs": [
        {
          "internalType": "uint256",
          "name": "",
          "type": "uint256"
        }
      ],
      "stateMutability": "view",
      "type": "function"
    },
    {
      "inputs": [],
      "name": "ProposalThreshold",
      "outputs": [
        {
          "internalType": "uint256",
          "name": "",
          "type": "uint256"
        }
      ],
      "stateMutability": "view",
      "type": "function"
    },
    {
      "inputs": [],
      "name": "createBallot",
      "outputs": [],
      "stateMutability": "nonpayable",
      "type": "function"
    },
    {
      "inputs": [
        {
          "internalType": "uint8",
          "name": "_proposalNo",
          "type": "uint8"
        }
      ],
      "name": "getProposalCount",
      "outputs": [
        {
          "internalType": "uint256",
          "name": "",
          "type": "uint256"
        }
      ],
      "stateMutability": "view",
      "type": "function"
    },
    {
      "inputs": [
        {
          "internalType": "uint8",
          "name": "_proposalNo",
          "type": "uint8"
        }
      ],
      "name": "isProposalAboveThreshold",
      "outputs": [
        {
          "internalType": "bool",
          "name": "",
          "type": "bool"
        }
      ],
      "stateMutability": "view",
      "type": "function"
    },
    {
      "inputs": [
        {
          "internalType": "bytes32[]",
          "name": "_electionProposals",
          "type": "bytes32[]"
        }
      ],
      "name": "passElectionProposals",
      "outputs": [],
      "stateMutability": "nonpayable",
      "type": "function"
    },
    {
      "inputs": [],
      "name": "viewElectionDate",
      "outputs": [
        {
          "internalType": "uint256",
          "name": "",
          "type": "uint256"
        }
      ],
      "stateMutability": "view",
      "type": "function"
    },
    {
      "inputs": [],
      "name": "viewElectionDuration",
      "outputs": [
        {
          "internalType": "uint256",
          "name": "",
          "type": "uint256"
        }
      ],
      "stateMutability": "view",
      "type": "function"
    },
    {
      "inputs": [],
      "name": "viewElectionName",
      "outputs": [
        {
          "internalType": "string",
          "name": "",
          "type": "string"
        }
      ],
      "stateMutability": "view",
      "type": "function"
    },
    {
      "inputs": [],
      "name": "viewElectionProposals",
      "outputs": [
        {
          "internalType": "bytes32[]",
          "name": "",
          "type": "bytes32[]"
        }
      ],
      "stateMutability": "view",
      "type": "function"
    },
    {
      "inputs": [],
      "name": "viewIsBallotCreated",
      "outputs": [
        {
          "internalType": "bool",
          "name": "",
          "type": "bool"
        }
      ],
      "stateMutability": "view",
      "type": "function"
    },
    {
      "inputs": [],
      "name": "viewIsElectionProposalsPassed",
      "outputs": [
        {
          "internalType": "bool",
          "name": "",
          "type": "bool"
        }
      ],
      "stateMutability": "view",
      "type": "function"
    },
    {
      "inputs": [
        {
          "internalType": "uint256[]",
          "name": "preferenceRank",
          "type": "uint256[]"
        }
      ],
      "name": "vote",
      "outputs": [],
      "stateMutability": "nonpayable",
      "type": "function"
    }
  ],
  "bytecode": "0x60c06040523480156200001157600080fd5b506040516200131d3803806200131d833981810160405260608110156200003757600080fd5b81019080805160405193929190846401000000008211156200005857600080fd5b838201915060208201858111156200006f57600080fd5b82518660018202830111640100000000821117156200008d57600080fd5b8083526020830192505050908051906020019080838360005b83811015620000c3578082015181840152602081019050620000a6565b50505050905090810190601f168015620000f15780820380516001836020036101000a031916815260200191505b50604052602001805190602001909291908051906020019092919050505082600090805190602001906200012792919062000141565b5081608081815250508060a08181525050505050620001e7565b828054600181600116156101000203166002900490600052602060002090601f016020900481019282601f106200018457805160ff1916838001178555620001b5565b82800160010185558215620001b5579182015b82811115620001b457825182559160200191906001019062000197565b5b509050620001c49190620001c8565b5090565b5b80821115620001e3576000816000905550600101620001c9565b5090565b60805160a0516111126200020b60003980610ca652508061062952506111126000f3fe608060405234801561001057600080fd5b50600436106100f55760003560e01c80637506cf4f11610097578063de2877a111610066578063de2877a114610421578063e0cc854914610441578063f07e4fd91461045f578063f0fcb9f31461047d576100f5565b80637506cf4f1461027f57806389e75d96146102de578063cd6c069e14610361578063ce11f2bb146103a8576100f5565b80631f4ed9ce116100d35780631f4ed9ce1461016757806325834adf146101895780634f85164a146101a7578063698863dd146101c7576100f5565b80630751a87a146100fa578063087cca261461013f5780630c4a7ff414610149575b600080fd5b6101296004803603602081101561011057600080fd5b81019080803560ff1690602001909291905050506104c9565b6040518082815260200191505060405180910390f35b61014761057c565b005b6101516105f2565b6040518082815260200191505060405180910390f35b61016f61061f565b604051808261ffff16815260200191505060405180910390f35b610191610625565b6040518082815260200191505060405180910390f35b6101af61064d565b60405180821515815260200191505060405180910390f35b61027d600480360360208110156101dd57600080fd5b81019080803590602001906401000000008111156101fa57600080fd5b82018360208201111561020c57600080fd5b8035906020019184602083028401116401000000008311171561022e57600080fd5b919080806020026020016040519081016040528093929190818152602001838360200280828437600081840152601f19601f820116905080830192505050505050509192919290505050610664565b005b6102876106ff565b6040518080602001828103825283818151815260200191508051906020019060200280838360005b838110156102ca5780820151818401526020810190506102af565b505050509050019250505060405180910390f35b6102e66107bc565b6040518080602001828103825283818151815260200191508051906020019080838360005b8381101561032657808201518184015260208101905061030b565b50505050905090810190601f1680156103535780820380516001836020036101000a031916815260200191505b509250505060405180910390f35b6103906004803603602081101561037757600080fd5b81019080803560ff16906020019092919050505061085e565b60405180821515815260200191505060405180910390f35b61041f600480360360208110156103be57600080fd5b81019080803590602001906401000000008111156103db57600080fd5b8201836020820111156103ed57600080fd5b8035906020019184602083028401116401000000008311171561040f57600080fd5b9091929391929390505050610889565b005b610429610c67565b60405180821515815260200191505060405180910390f35b610449610c7e565b6040518082815260200191505060405180910390f35b610467610ca2565b6040518082815260200191505060405180910390f35b6104b36004803603604081101561049357600080fd5b810190808035906020019092919080359060200190929190505050610cca565b6040518082815260200191505060405180910390f35b600080670de0b6b3a7640000600360008560ff168152602001908152602001600020600060018660ff16815481106104fd57fe5b90600052602060002001548152602001908152602001600020540290506000600360006103e861ffff16815260200190815260200160002060007f506572666563745f43616e6469646174655f4e414d4500000000000000000000815260200190815260200160002054905080828161057257fe5b0492505050919050565b6105d560018054806020026020016040519081016040528092919081815260200182805480156105cb57602002820191906000526020600020905b8154815260200190600101908083116105b7575b5050505050610cef565b6001600260006101000a81548160ff021916908315150217905550565b60008068056bc75e2d6310000090506000606460018054905002905080828161061757fe5b049250505090565b6103e881565b60007f0000000000000000000000000000000000000000000000000000000000000000905090565b6000600260009054906101000a900460ff16905090565b600260019054906101000a900460ff16156106ca576040517f08c379a00000000000000000000000000000000000000000000000000000000081526004018080602001828103825260218152602001806110bc6021913960400191505060405180910390fd5b80600190805190602001906106e0929190610f9b565b506001600260016101000a81548160ff02191690831515021790555050565b6060600260019054906101000a900460ff16610766576040517f08c379a00000000000000000000000000000000000000000000000000000000081526004018080602001828103825260258152602001806110976025913960400191505060405180910390fd5b60018054806020026020016040519081016040528092919081815260200182805480156107b257602002820191906000526020600020905b81548152602001906001019080831161079e575b5050505050905090565b606060008054600181600116156101000203166002900480601f0160208091040260200160405190810160405280929190818152602001828054600181600116156101000203166002900480156108545780601f1061082957610100808354040283529160200191610854565b820191906000526020600020905b81548152906001019060200180831161083757829003601f168201915b5050505050905090565b60006108686105f2565b610871836104c9565b1061087f5760019050610884565b600090505b919050565b818160006003600060018585905003815260200190815260200160002060007f546f74616c204e6f204f662050726f706f73616c0000000000000000000000008152602001908152602001600020549050808383905014610935576040517f08c379a00000000000000000000000000000000000000000000000000000000081526004018080602001828103825260308152602001806110066030913960400191505060405180910390fd5b60005b838390508160ff161015610a4d578184848360ff1681811061095657fe5b9050602002013511156109b4576040517f08c379a00000000000000000000000000000000000000000000000000000000081526004018080602001828103825260408152602001806110366040913960400191505060405180910390fd5b600084848360ff168181106109c557fe5b905060200201351415610a40576040517f08c379a000000000000000000000000000000000000000000000000000000000815260040180806020018281038252601c8152602001807f52616e6b2063616e6e6f7420626520657175616c20746f207a65726f0000000081525060200191505060405180910390fd5b8080600101915050610938565b506000600180549050905060008060005b838160ff161015610b5c5768056bc75e2d63100000925088888260ff16818110610a8457fe5b905060200201359150818381610a9657fe5b04600360008360ff168152602001908152602001600020600060018460ff1681548110610abf57fe5b9060005260206000200154815260200190815260200160002060008282540192505081905550818381610aee57fe5b046004600060018460ff1681548110610b0357fe5b9060005260206000200154815260200190815260200160002060008b8b8560ff16818110610b2d57fe5b905060200201358152602001908152602001600020600082825401925050819055508080600101915050610a5e565b5068056bc75e2d63100000600360006103e861ffff16815260200190815260200160002060007f506572666563745f43616e6469646174655f4e414d45000000000000000000008152602001908152602001600020600082825401925050819055507fd1a9279af7d614330cf886dc688dedc8be584f48cd2851adffcf48aeb96b20858888604051808060200180602001838103835260198152602001807f596f75277665207375636365737366756c6c7920766f746564000000000000008152506020018381038252858582818152602001925060200280828437600081840152601f19601f82011690508083019250505094505050505060405180910390a15050505050505050565b6000600260019054906101000a900460ff16905090565b7f506572666563745f43616e6469646174655f4e414d450000000000000000000081565b60007f0000000000000000000000000000000000000000000000000000000000000000905090565b6004602052816000526040600020602052806000526040600020600091509150505481565b600260009054906101000a900460ff1615610d72576040517f08c379a000000000000000000000000000000000000000000000000000000000815260040180806020018281038252601f8152602001807f42616c6c6f742068617320616c7265616479206265656e20637265617465640081525060200191505060405180910390fd5b600260019054906101000a900460ff16610dd7576040517f08c379a00000000000000000000000000000000000000000000000000000000081526004018080602001828103825260218152602001806110766021913960400191505060405180910390fd5b60005b81518160ff161015610e36576000600360008360ff1681526020019081526020016000206000848460ff1681518110610e0f57fe5b60200260200101518152602001908152602001600020819055508080600101915050610dda565b508051600360006001845103815260200190815260200160002060007f546f74616c204e6f204f662050726f706f73616c0000000000000000000000008152602001908152602001600020819055506000600360006103e861ffff16815260200190815260200160002060007f506572666563745f43616e6469646174655f4e414d45000000000000000000008152602001908152602001600020819055507ff5e69eb1c6c31e9d58038e89baa7f74070402378c3272b5c67bc1d2550f89c08600082516040518080602001838152602001828103825284818154600181600116156101000203166002900481526020019150805460018160011615610100020316600290048015610f895780601f10610f5e57610100808354040283529160200191610f89565b820191906000526020600020905b815481529060010190602001808311610f6c57829003601f168201915b5050935050505060405180910390a150565b828054828255906000526020600020908101928215610fd7579160200282015b82811115610fd6578251825591602001919060010190610fbb565b5b509050610fe49190610fe8565b5090565b5b80821115611001576000816000905550600101610fe9565b509056fe566f74652069732062656c6f77206f72206578636565647320746865206e756d626572206f662070726f706f73616c7352616e6b2063616e6e6f7420626520686967686572207468616e206e756d626572206f6620726570726573656e746174697665206f722070726f706f73616c7350726f706f73616c73206861766520746f20626520706173736564206669727374456c656374696f6e2050726f706f73616c20686173206e6f74206265656e20706173736564456c656374696f6e2050726f706f73616c20686173206265656e20706173736564a26469706673582212205ea00d7912ff8b0920cb21734d14a703d5b006158c166857ace27c75fa33e7b564736f6c63430007030033",
  "linkReferences": {},
  "deployedLinkReferences": {}
}