{
  "_format": "hh-sol-artifact-1",
  "contractName": "STVFactory",
  "sourceName": "contracts/StvFactory.sol",
  "abi": [
    {
      "anonymous": false,
      "inputs": [
        {
          "indexed": false,
          "internalType": "address",
          "name": "contractAddr",
          "type": "address"
        }
      ],
      "name": "Deploy",
      "type": "event"
    },
    {
      "inputs": [
        {
          "internalType": "string",
          "name": "_voteName",
          "type": "string"
        },
        {
          "internalType": "uint256",
          "name": "_date",
          "type": "uint256"
        },
        {
          "internalType": "uint256",
          "name": "_duration",
          "type": "uint256"
        },
        {
          "internalType": "bytes32[]",
          "name": "_proposalNames",
          "type": "bytes32[]"
        }
      ],
      "name": "deploy",
      "outputs": [],
      "stateMutability": "nonpayable",
      "type": "function"
    }
  ],
  "bytecode": "0x608060405234801561001057600080fd5b506111f7806100206000396000f3fe608060405234801561001057600080fd5b506004361061002b5760003560e01c8063ced6155114610030575b600080fd5b6101916004803603608081101561004657600080fd5b810190808035906020019064010000000081111561006357600080fd5b82018360208201111561007557600080fd5b8035906020019184600183028401116401000000008311171561009757600080fd5b91908080601f016020809104026020016040519081016040528093929190818152602001838380828437600081840152601f19601f82011690508083019250505050505050919291929080359060200190929190803590602001909291908035906020019064010000000081111561010e57600080fd5b82018360208201111561012057600080fd5b8035906020019184602083028401116401000000008311171561014257600080fd5b919080806020026020016040519081016040528093929190818152602001838360200280828437600081840152601f19601f820116905080830192505050505050509192919290505050610193565b005b6000848484846040516101a5906102dd565b808060200185815260200184815260200180602001838103835287818151815260200191508051906020019080838360005b838110156101f25780820151818401526020810190506101d7565b50505050905090810190601f16801561021f5780820380516001836020036101000a031916815260200191505b50838103825284818151815260200191508051906020019060200280838360005b8381101561025b578082015181840152602081019050610240565b505050509050019650505050505050604051809103906000f080158015610286573d6000803e3d6000fd5b5090507f55ea6c6b31543d8e2ec6a72f71a79c0f4b72ed0d4757172b043d8f4f4cd8484881604051808273ffffffffffffffffffffffffffffffffffffffff16815260200191505060405180910390a15050505050565b610ed7806102eb8339019056fe60c06040523480156200001157600080fd5b5060405162000ed738038062000ed7833981810160405260808110156200003757600080fd5b81019080805160405193929190846401000000008211156200005857600080fd5b838201915060208201858111156200006f57600080fd5b82518660018202830111640100000000821117156200008d57600080fd5b8083526020830192505050908051906020019080838360005b83811015620000c3578082015181840152602081019050620000a6565b50505050905090810190601f168015620000f15780820380516001836020036101000a031916815260200191505b506040526020018051906020019092919080519060200190929190805160405193929190846401000000008211156200012957600080fd5b838201915060208201858111156200014057600080fd5b82518660208202830111640100000000821117156200015e57600080fd5b8083526020830192505050908051906020019060200280838360005b83811015620001975780820151818401526020810190506200017a565b505050509050016040525050508360009080519060200190620001bc9291906200024f565b5082608081815250508160a0818152505060005b81518160ff161015620002445760026040518060200160405280848460ff1681518110620001fa57fe5b6020026020010151815250908060018154018082558091505060019003906000526020600020016000909190919091506000820151816000015550508080600101915050620001d0565b5050505050620002f5565b828054600181600116156101000203166002900490600052602060002090601f016020900481019282601f106200029257805160ff1916838001178555620002c3565b82800160010185558215620002c3579182015b82811115620002c2578251825591602001919060010190620002a5565b5b509050620002d29190620002d6565b5090565b5b80821115620002f1576000816000905550600101620002d7565b5090565b60805160a051610bbe62000319600039806105cd5250806104d35250610bbe6000f3fe608060405234801561001057600080fd5b50600436106100b35760003560e01c80633c062f22116100715780633c062f22146101e1578063a771504114610264578063ccb3094114610284578063cd6c069e146102a2578063ce11f2bb146102e9578063d1dbe7d814610362576100b3565b80627e2173146100b85780630751a87a14610107578063087cca261461014c5780630c4a7ff4146101565780631ca989cf146101745780631d3c739614610192575b600080fd5b6100f1600480360360408110156100ce57600080fd5b81019080803560ff169060200190929190803590602001909291905050506103a4565b6040518082815260200191505060405180910390f35b6101366004803603602081101561011d57600080fd5b81019080803560ff1690602001909291905050506103c9565b6040518082815260200191505060405180910390f35b610154610480565b005b61015e6104a4565b6040518082815260200191505060405180910390f35b61017c6104d1565b6040518082815260200191505060405180910390f35b6101cb600480360360408110156101a857600080fd5b81019080803560ff169060200190929190803590602001909291905050506104f5565b6040518082815260200191505060405180910390f35b6101e961051a565b6040518080602001828103825283818151815260200191508051906020019080838360005b8381101561022957808201518184015260208101905061020e565b50505050905090810190601f1680156102565780820380516001836020036101000a031916815260200191505b509250505060405180910390f35b61026c6105b8565b60405180821515815260200191505060405180910390f35b61028c6105cb565b6040518082815260200191505060405180910390f35b6102d1600480360360208110156102b857600080fd5b81019080803560ff1690602001909291905050506105ef565b60405180821515815260200191505060405180910390f35b610360600480360360208110156102ff57600080fd5b810190808035906020019064010000000081111561031c57600080fd5b82018360208201111561032e57600080fd5b8035906020019184602083028401116401000000008311171561035057600080fd5b909192939192939050505061061a565b005b61038e6004803603602081101561037857600080fd5b8101908080359060200190929190505050610946565b6040518082815260200191505060405180910390f35b6003602052816000526040600020602052806000526040600020600091509150505481565b600080670de0b6b3a7640000600360008560ff1660ff168152602001908152602001600020600060028660ff168154811061040057fe5b9060005260206000200160000154815260200190815260200160002054029050600060036000600660ff16815260200190815260200160002060007f506572666563745f566f74650000000000000000000000000000000000000000815260200190815260200160002054905080828161047657fe5b0492505050919050565b61048861096d565b60018060006101000a81548160ff021916908315150217905550565b60008068056bc75e2d631000009050600060646002805490500290508082816104c957fe5b049250505090565b7f000000000000000000000000000000000000000000000000000000000000000081565b6004602052816000526040600020602052806000526040600020600091509150505481565b60008054600181600116156101000203166002900480601f0160208091040260200160405190810160405280929190818152602001828054600181600116156101000203166002900480156105b05780601f10610585576101008083540402835291602001916105b0565b820191906000526020600020905b81548152906001019060200180831161059357829003601f168201915b505050505081565b600160009054906101000a900460ff1681565b7f000000000000000000000000000000000000000000000000000000000000000081565b60006105f96104a4565b610602836103c9565b106106105760019050610615565b600090505b919050565b8181600280549050828290501461067c576040517f08c379a0000000000000000000000000000000000000000000000000000000008152600401808060200182810382526024815260200180610b656024913960400191505060405180910390fd5b60005b828290508160ff1610156107995760028054905083838360ff168181106106a257fe5b905060200201351115610700576040517f08c379a0000000000000000000000000000000000000000000000000000000008152600401808060200182810382526033815260200180610b326033913960400191505060405180910390fd5b600083838360ff1681811061071157fe5b90506020020135141561078c576040517f08c379a000000000000000000000000000000000000000000000000000000000815260040180806020018281038252601c8152602001807f52616e6b2063616e6e6f7420626520657175616c20746f207a65726f0000000081525060200191505060405180910390fd5b808060010191505061067f565b5060008060005b6002805490508160ff16101561083f5768056bc75e2d63100000925086868260ff168181106107cb57fe5b9050602002013591508183816107dd57fe5b04600360008360ff1660ff168152602001908152602001600020600060028460ff168154811061080957fe5b906000526020600020016000015481526020019081526020016000206000828254019250508190555080806001019150506107a0565b5068056bc75e2d6310000060036000600660ff16815260200190815260200160002060007f506572666563745f566f746500000000000000000000000000000000000000008152602001908152602001600020600082825401925050819055507fd1a9279af7d614330cf886dc688dedc8be584f48cd2851adffcf48aeb96b20858686604051808060200180602001838103835260198152602001807f596f75277665207375636365737366756c6c7920766f746564000000000000008152506020018381038252858582818152602001925060200280828437600081840152601f19601f82011690508083019250505094505050505060405180910390a1505050505050565b6002818154811061095357fe5b906000526020600020016000915090508060000154905081565b600160009054906101000a900460ff16156109f0576040517f08c379a000000000000000000000000000000000000000000000000000000000815260040180806020018281038252601f8152602001807f42616c6c6f742068617320616c7265616479206265656e20637265617465640081525060200191505060405180910390fd5b600080600090505b6002805490508160ff161015610a68576000600360008360ff1660ff168152602001908152602001600020600060028460ff1681548110610a3557fe5b906000526020600020016000015481526020019081526020016000208190555060018201915080806001019150506109f8565b507f4328d2b155cac6420601a613a97d82fc7b499fae0b3d07eda80a3e711963fd5460008260405180806020018360ff168152602001828103825284818154600181600116156101000203166002900481526020019150805460018160011615610100020316600290048015610b1f5780601f10610af457610100808354040283529160200191610b1f565b820191906000526020600020905b815481529060010190602001808311610b0257829003601f168201915b5050935050505060405180910390a15056fe52616e6b2063616e6e6f7420626520686967686572207468616e206e756d626572206f6620726570726573656e746174697665566f7465206578636565647320746865206e756d626572206f662070726f706f73616c73a26469706673582212206a8db166a7363b9ebfa798d0fe9561e6919a0a13599e38974693d64e8138e54764736f6c63430007030033a2646970667358221220feef2406a77c84ba2b98edf6a4e8682ceea41166fbbd396aa5320e0931bb050364736f6c63430007030033",
  "linkReferences": {},
  "deployedLinkReferences": {}
}