{
  "_format": "hh-sol-artifact-1",
  "contractName": "STVFactory",
  "sourceName": "contracts/StvFactory.sol",
  "abi": [
    {
      "anonymous": false,
      "inputs": [
        {
          "indexed": false,
          "internalType": "address",
          "name": "contractAddr",
          "type": "address"
        }
      ],
      "name": "Deploy",
      "type": "event"
    },
    {
      "inputs": [
        {
          "internalType": "string",
          "name": "_electionName",
          "type": "string"
        },
        {
          "internalType": "uint256",
          "name": "_electionDate",
          "type": "uint256"
        },
        {
          "internalType": "uint256",
          "name": "_electionDuration",
          "type": "uint256"
        },
        {
          "internalType": "uint256",
          "name": "_totalNoOfAvailableSlots",
          "type": "uint256"
        }
      ],
      "name": "deploy",
      "outputs": [],
      "stateMutability": "nonpayable",
      "type": "function"
    }
  ],
  "bytecode": "0x608060405234801561001057600080fd5b50611734806100206000396000f3fe608060405234801561001057600080fd5b506004361061002b5760003560e01c806358948f0714610030575b600080fd5b6101076004803603608081101561004657600080fd5b810190808035906020019064010000000081111561006357600080fd5b82018360208201111561007557600080fd5b8035906020019184600183028401116401000000008311171561009757600080fd5b91908080601f016020809104026020016040519081016040528093929190818152602001838380828437600081840152601f19601f820116905080830192505050505050509192919290803590602001909291908035906020019092919080359060200190929190505050610109565b005b60008484848460405161011b90610212565b8080602001858152602001848152602001838152602001828103825286818151815260200191508051906020019080838360005b8381101561016a57808201518184015260208101905061014f565b50505050905090810190601f1680156101975780820380516001836020036101000a031916815260200191505b5095505050505050604051809103906000f0801580156101bb573d6000803e3d6000fd5b5090507f55ea6c6b31543d8e2ec6a72f71a79c0f4b72ed0d4757172b043d8f4f4cd8484881604051808273ffffffffffffffffffffffffffffffffffffffff16815260200191505060405180910390a15050505050565b6114df806102208339019056fe60e06040523480156200001157600080fd5b50604051620014df380380620014df833981810160405260808110156200003757600080fd5b81019080805160405193929190846401000000008211156200005857600080fd5b838201915060208201858111156200006f57600080fd5b82518660018202830111640100000000821117156200008d57600080fd5b8083526020830192505050908051906020019080838360005b83811015620000c3578082015181840152602081019050620000a6565b50505050905090810190601f168015620000f15780820380516001836020036101000a031916815260200191505b5060405260200180519060200190929190805190602001909291908051906020019092919050505083600090805190602001906200013192919062000154565b5082608081815250508160a081815250508060c0818152505050505050620001fa565b828054600181600116156101000203166002900490600052602060002090601f016020900481019282601f106200019757805160ff1916838001178555620001c8565b82800160010185558215620001c8579182015b82811115620001c7578251825591602001919060010190620001aa565b5b509050620001d79190620001db565b5090565b5b80821115620001f6576000816000905550600101620001dc565b5090565b60805160a05160c0516112b36200022c600039806107075280610790525080610dea525080610e4952506112b36000f3fe608060405234801561001057600080fd5b506004361061012c5760003560e01c806380843e25116100ad578063d112b1ca11610071578063d112b1ca14610502578063de2877a114610520578063e0cc854914610540578063e304ce871461055e578063f0fcb9f31461057c5761012c565b806380843e2514610381578063a771504114610404578063c52a4e3914610424578063cd6c069e14610442578063ce11f2bb146104895761012c565b806341cc6870116100f457806341cc68701461020c5780634f85164a1461022c5780636792f2b51461024c578063698863dd1461026a5780637506cf4f146103225761012c565b80630751a87a14610131578063087cca26146101765780630c4a7ff4146101805780631a42af231461019e5780631f4ed9ce146101ea575b600080fd5b6101606004803603602081101561014757600080fd5b81019080803560ff1690602001909291905050506105c8565b6040518082815260200191505060405180910390f35b61017e61067e565b005b6101886106f4565b6040518082815260200191505060405180910390f35b6101d4600480360360408110156101b457600080fd5b810190808035906020019092919080359060200190929190505050610739565b6040518082815260200191505060405180910390f35b6101f261075e565b604051808261ffff16815260200191505060405180910390f35b610214610764565b60405180821515815260200191505060405180910390f35b610234610777565b60405180821515815260200191505060405180910390f35b61025461078e565b6040518082815260200191505060405180910390f35b6103206004803603602081101561028057600080fd5b810190808035906020019064010000000081111561029d57600080fd5b8201836020820111156102af57600080fd5b803590602001918460208302840111640100000000831117156102d157600080fd5b919080806020026020016040519081016040528093929190818152602001838360200280828437600081840152601f19601f8201169050808301925050505050505091929192905050506107b2565b005b61032a61084d565b6040518080602001828103825283818151815260200191508051906020019060200280838360005b8381101561036d578082015181840152602081019050610352565b505050509050019250505060405180910390f35b61038961090a565b6040518080602001828103825283818151815260200191508051906020019080838360005b838110156103c95780820151818401526020810190506103ae565b50505050905090810190601f1680156103f65780820380516001836020036101000a031916815260200191505b509250505060405180910390f35b61040c6109a8565b60405180821515815260200191505060405180910390f35b61042c6109bb565b6040518082815260200191505060405180910390f35b6104716004803603602081101561045857600080fd5b81019080803560ff1690602001909291905050506109df565b60405180821515815260200191505060405180910390f35b6105006004803603602081101561049f57600080fd5b81019080803590602001906401000000008111156104bc57600080fd5b8201836020820111156104ce57600080fd5b803590602001918460208302840111640100000000831117156104f057600080fd5b9091929391929390505050610a0a565b005b61050a610de8565b6040518082815260200191505060405180910390f35b610528610e0c565b60405180821515815260200191505060405180910390f35b610548610e23565b6040518082815260200191505060405180910390f35b610566610e47565b6040518082815260200191505060405180910390f35b6105b26004803603604081101561059257600080fd5b810190808035906020019092919080359060200190929190505050610e6b565b6040518082815260200191505060405180910390f35b600080670de0b6b3a76400006064600360008660ff168152602001908152602001600020600060018760ff16815481106105fe57fe5b9060005260206000200154815260200190815260200160002054020290506000600360006103e861ffff16815260200190815260200160002060007f506572666563745f43616e6469646174655f4e414d4500000000000000000000815260200190815260200160002054905080828161067457fe5b0492505050919050565b6106d760018054806020026020016040519081016040528092919081815260200182805480156106cd57602002820191906000526020600020905b8154815260200190600101908083116106b9575b5050505050610e90565b6001600260006101000a81548160ff021916908315150217905550565b60008068056bc75e2d63100000905060007f0000000000000000000000000000000000000000000000000000000000000000905080828161073157fe5b049250505090565b6003602052816000526040600020602052806000526040600020600091509150505481565b6103e881565b600260019054906101000a900460ff1681565b6000600260009054906101000a900460ff16905090565b7f000000000000000000000000000000000000000000000000000000000000000081565b600260019054906101000a900460ff1615610818576040517f08c379a000000000000000000000000000000000000000000000000000000000815260040180806020018281038252602181526020018061125d6021913960400191505060405180910390fd5b806001908051906020019061082e92919061113c565b506001600260016101000a81548160ff02191690831515021790555050565b6060600260019054906101000a900460ff166108b4576040517f08c379a00000000000000000000000000000000000000000000000000000000081526004018080602001828103825260258152602001806112386025913960400191505060405180910390fd5b600180548060200260200160405190810160405280929190818152602001828054801561090057602002820191906000526020600020905b8154815260200190600101908083116108ec575b5050505050905090565b60008054600181600116156101000203166002900480601f0160208091040260200160405190810160405280929190818152602001828054600181600116156101000203166002900480156109a05780601f10610975576101008083540402835291602001916109a0565b820191906000526020600020905b81548152906001019060200180831161098357829003601f168201915b505050505081565b600260009054906101000a900460ff1681565b7f546f74616c204e6f204f662050726f706f73616c00000000000000000000000081565b60006109e96106f4565b6109f2836105c8565b10610a005760019050610a05565b600090505b919050565b818160006003600060018585905003815260200190815260200160002060007f546f74616c204e6f204f662050726f706f73616c0000000000000000000000008152602001908152602001600020549050808383905014610ab6576040517f08c379a00000000000000000000000000000000000000000000000000000000081526004018080602001828103825260308152602001806111a76030913960400191505060405180910390fd5b60005b838390508160ff161015610bce578184848360ff16818110610ad757fe5b905060200201351115610b35576040517f08c379a00000000000000000000000000000000000000000000000000000000081526004018080602001828103825260408152602001806111d76040913960400191505060405180910390fd5b600084848360ff16818110610b4657fe5b905060200201351415610bc1576040517f08c379a000000000000000000000000000000000000000000000000000000000815260040180806020018281038252601c8152602001807f52616e6b2063616e6e6f7420626520657175616c20746f207a65726f0000000081525060200191505060405180910390fd5b8080600101915050610ab9565b506000600180549050905060008060005b838160ff161015610cdd5768056bc75e2d63100000925088888260ff16818110610c0557fe5b905060200201359150818381610c1757fe5b04600360008360ff168152602001908152602001600020600060018460ff1681548110610c4057fe5b9060005260206000200154815260200190815260200160002060008282540192505081905550818381610c6f57fe5b046004600060018460ff1681548110610c8457fe5b9060005260206000200154815260200190815260200160002060008b8b8560ff16818110610cae57fe5b905060200201358152602001908152602001600020600082825401925050819055508080600101915050610bdf565b5068056bc75e2d63100000600360006103e861ffff16815260200190815260200160002060007f506572666563745f43616e6469646174655f4e414d45000000000000000000008152602001908152602001600020600082825401925050819055507fd1a9279af7d614330cf886dc688dedc8be584f48cd2851adffcf48aeb96b20858888604051808060200180602001838103835260198152602001807f596f75277665207375636365737366756c6c7920766f746564000000000000008152506020018381038252858582818152602001925060200280828437600081840152601f19601f82011690508083019250505094505050505060405180910390a15050505050505050565b7f000000000000000000000000000000000000000000000000000000000000000081565b6000600260019054906101000a900460ff16905090565b7f506572666563745f43616e6469646174655f4e414d450000000000000000000081565b7f000000000000000000000000000000000000000000000000000000000000000081565b6004602052816000526040600020602052806000526040600020600091509150505481565b600260009054906101000a900460ff1615610f13576040517f08c379a000000000000000000000000000000000000000000000000000000000815260040180806020018281038252601f8152602001807f42616c6c6f742068617320616c7265616479206265656e20637265617465640081525060200191505060405180910390fd5b600260019054906101000a900460ff16610f78576040517f08c379a00000000000000000000000000000000000000000000000000000000081526004018080602001828103825260218152602001806112176021913960400191505060405180910390fd5b60005b81518160ff161015610fd7576000600360008360ff1681526020019081526020016000206000848460ff1681518110610fb057fe5b60200260200101518152602001908152602001600020819055508080600101915050610f7b565b508051600360006001845103815260200190815260200160002060007f546f74616c204e6f204f662050726f706f73616c0000000000000000000000008152602001908152602001600020819055506000600360006103e861ffff16815260200190815260200160002060007f506572666563745f43616e6469646174655f4e414d45000000000000000000008152602001908152602001600020819055507ff5e69eb1c6c31e9d58038e89baa7f74070402378c3272b5c67bc1d2550f89c0860008251604051808060200183815260200182810382528481815460018160011615610100020316600290048152602001915080546001816001161561010002031660029004801561112a5780601f106110ff5761010080835404028352916020019161112a565b820191906000526020600020905b81548152906001019060200180831161110d57829003601f168201915b5050935050505060405180910390a150565b828054828255906000526020600020908101928215611178579160200282015b8281111561117757825182559160200191906001019061115c565b5b5090506111859190611189565b5090565b5b808211156111a257600081600090555060010161118a565b509056fe566f74652069732062656c6f77206f72206578636565647320746865206e756d626572206f662070726f706f73616c7352616e6b2063616e6e6f7420626520686967686572207468616e206e756d626572206f6620726570726573656e746174697665206f722070726f706f73616c7350726f706f73616c73206861766520746f20626520706173736564206669727374456c656374696f6e2050726f706f73616c20686173206e6f74206265656e20706173736564456c656374696f6e2050726f706f73616c20686173206265656e20706173736564a2646970667358221220397e302bfc79af91f488ff38da318330e75f2ceb218f019528bc552a568d933e64736f6c63430007030033a2646970667358221220d2ada921d176c3ed283550d819666388386f6733efe15309cad940465e732cbc64736f6c63430007030033",
  "linkReferences": {},
  "deployedLinkReferences": {}
}