{
  "_format": "hh-sol-artifact-1",
  "contractName": "STVFactory",
  "sourceName": "contracts/StvFactory.sol",
  "abi": [
    {
      "anonymous": false,
      "inputs": [
        {
          "indexed": false,
          "internalType": "address",
          "name": "contractAddr",
          "type": "address"
        }
      ],
      "name": "Deploy",
      "type": "event"
    },
    {
      "inputs": [
        {
          "internalType": "string",
          "name": "_electionName",
          "type": "string"
        },
        {
          "internalType": "uint256",
          "name": "_electionDate",
          "type": "uint256"
        },
        {
          "internalType": "uint256",
          "name": "_electionDuration",
          "type": "uint256"
        },
        {
          "internalType": "uint256",
          "name": "_totalNoOfAvailableSlots",
          "type": "uint256"
        }
      ],
      "name": "deploy",
      "outputs": [],
      "stateMutability": "nonpayable",
      "type": "function"
    }
  ],
  "bytecode": "0x608060405234801561001057600080fd5b50611345806100206000396000f3fe608060405234801561001057600080fd5b506004361061002b5760003560e01c806358948f0714610030575b600080fd5b6101076004803603608081101561004657600080fd5b810190808035906020019064010000000081111561006357600080fd5b82018360208201111561007557600080fd5b8035906020019184600183028401116401000000008311171561009757600080fd5b91908080601f016020809104026020016040519081016040528093929190818152602001838380828437600081840152601f19601f820116905080830192505050505050509192919290803590602001909291908035906020019092919080359060200190929190505050610109565b005b60008484848460405161011b90610212565b8080602001858152602001848152602001838152602001828103825286818151815260200191508051906020019080838360005b8381101561016a57808201518184015260208101905061014f565b50505050905090810190601f1680156101975780820380516001836020036101000a031916815260200191505b5095505050505050604051809103906000f0801580156101bb573d6000803e3d6000fd5b5090507f55ea6c6b31543d8e2ec6a72f71a79c0f4b72ed0d4757172b043d8f4f4cd8484881604051808273ffffffffffffffffffffffffffffffffffffffff16815260200191505060405180910390a15050505050565b6110f0806102208339019056fe60e06040523480156200001157600080fd5b50604051620010f0380380620010f0833981810160405260808110156200003757600080fd5b81019080805160405193929190846401000000008211156200005857600080fd5b838201915060208201858111156200006f57600080fd5b82518660018202830111640100000000821117156200008d57600080fd5b8083526020830192505050908051906020019080838360005b83811015620000c3578082015181840152602081019050620000a6565b50505050905090810190601f168015620000f15780820380516001836020036101000a031916815260200191505b5060405260200180519060200190929190805190602001909291908051906020019092919050505083600090805190602001906200013192919062000154565b5082608081815250508160a081815250508060c0818152505050505050620001fa565b828054600181600116156101000203166002900490600052602060002090601f016020900481019282601f106200019757805160ff1916838001178555620001c8565b82800160010185558215620001c8579182015b82811115620001c7578251825591602001919060010190620001aa565b5b509050620001d79190620001db565b5090565b5b80821115620001f6576000816000905550600101620001dc565b5090565b60805160a05160c051610ec96200022760003980610558525080610caf525080610cea5250610ec96000f3fe608060405234801561001057600080fd5b50600436106100ea5760003560e01c80637506cf4f1161008c578063de2877a111610066578063de2877a1146103e6578063e304ce8714610406578063e4b90ccc14610424578063fbbd812e14610468576100ea565b80637506cf4f146102e657806380843e2514610345578063d112b1ca146103c8576100ea565b806341cc6870116100c857806341cc68701461016d5780636792f2b51461018d578063698863dd146101ab5780637055d36814610263576100ea565b80630a0edd54146100ef5780631cc05acc146101315780631f4ed9ce1461014f575b600080fd5b61011b6004803603602081101561010557600080fd5b81019080803590602001909291905050506104aa565b6040518082815260200191505060405180910390f35b6101396104cb565b6040518082815260200191505060405180910390f35b61015761053d565b6040518082815260200191505060405180910390f35b610175610543565b60405180821515815260200191505060405180910390f35b610195610556565b6040518082815260200191505060405180910390f35b610261600480360360208110156101c157600080fd5b81019080803590602001906401000000008111156101de57600080fd5b8201836020820111156101f057600080fd5b8035906020019184602083028401116401000000008311171561021257600080fd5b919080806020026020016040519081016040528093929190818152602001838360200280828437600081840152601f19601f82011690508083019250505050505050919291929050505061057a565b005b6102e46004803603604081101561027957600080fd5b8101908080359060200190929190803590602001906401000000008111156102a057600080fd5b8201836020820111156102b257600080fd5b803590602001918460208302840111640100000000831117156102d457600080fd5b9091929391929390505050610615565b005b6102ee610b52565b6040518080602001828103825283818151815260200191508051906020019060200280838360005b83811015610331578082015181840152602081019050610316565b505050509050019250505060405180910390f35b61034d610c0f565b6040518080602001828103825283818151815260200191508051906020019080838360005b8381101561038d578082015181840152602081019050610372565b50505050905090810190601f1680156103ba5780820380516001836020036101000a031916815260200191505b509250505060405180910390f35b6103d0610cad565b6040518082815260200191505060405180910390f35b6103ee610cd1565b60405180821515815260200191505060405180910390f35b61040e610ce8565b6040518082815260200191505060405180910390f35b6104506004803603602081101561043a57600080fd5b8101908080359060200190929190505050610d0c565b60405180821515815260200191505060405180910390f35b6104946004803603602081101561047e57600080fd5b8101908080359060200190929190505050610d2c565b6040518082815260200191505060405180910390f35b600581815481106104b757fe5b906000526020600020016000915090505481565b6000600260009054906101000a900460ff16610532576040517f08c379a0000000000000000000000000000000000000000000000000000000008152600401808060200182810382526025815260200180610e4e6025913960400191505060405180910390fd5b600180549050905090565b6103e881565b600260009054906101000a900460ff1681565b7f000000000000000000000000000000000000000000000000000000000000000081565b600260009054906101000a900460ff16156105e0576040517f08c379a0000000000000000000000000000000000000000000000000000000008152600401808060200182810382526021815260200180610e736021913960400191505060405180910390fd5b80600190805190602001906105f6929190610d4a565b506001600260006101000a81548160ff02191690831515021790555050565b81816001805490508282905014610677576040517f08c379a0000000000000000000000000000000000000000000000000000000008152600401808060200182810382526030815260200180610db56030913960400191505060405180910390fd5b60008282600081811061068657fe5b90506020020135905060005b838390508160ff1610156108285760018054905084848360ff168181106106b557fe5b905060200201351115610713576040517f08c379a0000000000000000000000000000000000000000000000000000000008152600401808060200182810382526040815260200180610e0e6040913960400191505060405180910390fd5b600084848360ff1681811061072457fe5b9050602002013511610781576040517f08c379a0000000000000000000000000000000000000000000000000000000008152600401808060200182810382526029815260200180610de56029913960400191505060405180910390fd5b60008160ff161180156107a857508184848360ff1681811061079f57fe5b90506020020135145b1561081b576040517f08c379a000000000000000000000000000000000000000000000000000000000815260040180806020018281038252601d8152602001807f566f7465642072616e6b2063616e6e6f7420626520726570656174656400000081525060200191505060405180910390fd5b8080600101915050610692565b50600068056bc75e2d6310000090506004600088815260200190815260200160002060009054906101000a900460ff166108b257600587908060018154018082558091505060019003906000526020600020016000909190919091505560016004600089815260200190815260200160002060006101000a81548160ff0219169083151502179055505b80600360008981526020019081526020016000206000016000828254019250508190555060005b86869050811015610a8357808814156108f157610a76565b60036000898152602001908152602001600020600101600088888481811061091557fe5b905060200201358152602001908152602001600020600101600082815260200190815260200160002060009054906101000a900460ff16610a1a5760036000898152602001908152602001600020600101600088888481811061097457fe5b9050602002013581526020019081526020016000206000018190806001815401808255809150506001900390600052602060002001600090919091909150556001600360008a815260200190815260200160002060010160008989858181106109d957fe5b905060200201358152602001908152602001600020600101600083815260200190815260200160002060006101000a81548160ff0219169083151502179055505b81600360008a81526020019081526020016000206001016000898985818110610a3f57fe5b9050602002013581526020019081526020016000206002016000838152602001908152602001600020600082825401925050819055505b80806001019150506108d9565b5080600360006103e88152602001908152602001600020600001600082825401925050819055507fd1a9279af7d614330cf886dc688dedc8be584f48cd2851adffcf48aeb96b20858686604051808060200180602001838103835260198152602001807f596f75277665207375636365737366756c6c7920766f746564000000000000008152506020018381038252858582818152602001925060200280828437600081840152601f19601f82011690508083019250505094505050505060405180910390a150505050505050565b6060600260009054906101000a900460ff16610bb9576040517f08c379a0000000000000000000000000000000000000000000000000000000008152600401808060200182810382526025815260200180610e4e6025913960400191505060405180910390fd5b6001805480602002602001604051908101604052809291908181526020018280548015610c0557602002820191906000526020600020905b815481526020019060010190808311610bf1575b5050505050905090565b60008054600181600116156101000203166002900480601f016020809104026020016040519081016040528092919081815260200182805460018160011615610100020316600290048015610ca55780601f10610c7a57610100808354040283529160200191610ca5565b820191906000526020600020905b815481529060010190602001808311610c8857829003601f168201915b505050505081565b7f000000000000000000000000000000000000000000000000000000000000000081565b6000600260009054906101000a900460ff16905090565b7f000000000000000000000000000000000000000000000000000000000000000081565b60046020528060005260406000206000915054906101000a900460ff1681565b60036020528060005260406000206000915090508060000154905081565b828054828255906000526020600020908101928215610d86579160200282015b82811115610d85578251825591602001919060010190610d6a565b5b509050610d939190610d97565b5090565b5b80821115610db0576000816000905550600101610d98565b509056fe566f74652069732062656c6f77206f72206578636565647320746865206e756d626572206f662070726f706f73616c7352616e6b2063616e6e6f74206265206c657373207468616e206f7220657175616c20746f207a65726f52616e6b2063616e6e6f7420626520686967686572207468616e206e756d626572206f6620726570726573656e746174697665206f722070726f706f73616c73456c656374696f6e2050726f706f73616c20686173206e6f74206265656e20706173736564456c656374696f6e2050726f706f73616c20686173206265656e20706173736564a264697066735822122067e4f74c9b105e341fa6dfb31464c1880fd341537af98b87b52e2a3dd6a4343264736f6c63430007000033a2646970667358221220723e451ab4487f094bce7ee329de4610c2ef1d4eaddbd5f6412809ebe01cae5364736f6c63430007000033",
  "linkReferences": {},
  "deployedLinkReferences": {}
}